:100000000C9463000C9411050C94EA040C943805CC
:100010000C9438050C9438050C948B000C948B00D0
:100020000C948B000C948B000C948B000C948B0024
:100030000C948B000C948B000C948B000C948B0014
:100040000C94A0040C948B000C946E040C94480443
:100050000C948B000C948B000C948B000C948B00F4
:100060000C948B000C948B000000000024002700EF
:100070002A0000000008000201000003040700003D
:1000800000000000000000000000230026002900FE
:1000900000000000250028002B00040404040404D0
:1000A0000404020202020202030303030303010227
:1000B00004081020408001020408102001020408F6
:1000C0001020B005360911241FBECFEFD8E0DEBFE7
:1000D000CDBF22E0A8E8B1E001C01D92AA3BB20763
:1000E000E1F711E0A0E0B1E0E2ECF7E102C0059039
:1000F0000D92A838B107D9F710E0C2E6D0E004C0ED
:100100002197FE010E94D309C136D107C9F70E9489
:100110005B060C94D40B0C940000AF92BF92CF926C
:10012000DF92EF92FF920F931F93CF93DF936C01B7
:100130007B018B01040F151FEB015E01AE18BF0898
:10014000C017D10759F06991D601ED91FC9101904A
:10015000F081E02DC6010995892B79F7C501DF9162
:10016000CF911F910F91FF90EF90DF90CF90BF90B4
:10017000AF900895FC01538D448D252F30E0842FDE
:1001800090E0821B930B541710F0CF9608950197BF
:100190000895FC01918D828D981761F0A28DAE0FAC
:1001A000BF2FB11D5D968C91928D9F5F9F73928F33
:1001B00090E008958FEF9FEF0895FC01918D828D5F
:1001C000981731F0828DE80FF11D858D90E008952C
:1001D0008FEF9FEF0895FC01918D228D892F90E084
:1001E000805C9F4F821B91098F73992708958AEF36
:1001F00091E00E94EB0021E0892B09F420E0822F9E
:10020000089580E090E0892B29F00E94F700811189
:100210000C9400000895FC01A48DA80FB92FB11D06
:10022000A35ABF4F2C91848D90E001968F7399272C
:10023000848FA689B7892C93A089B1898C9183700A
:1002400080648C93938D848D981306C00288F38903
:10025000E02D80818F7D80830895EF92FF920F9330
:100260001F93CF93DF93EC0181E0888F9B8D8C8D62
:1002700098131AC0E889F989808185FF15C09FB756
:10028000F894EE89FF896083E889F9898081837019
:10029000806480839FBF81E090E0DF91CF911F91C8
:1002A0000F91FF90EF900895F62E0B8D10E00F5FE9
:1002B0001F4F0F731127E02E8C8D8E110CC00FB6BF
:1002C00007FCFACFE889F989808185FFF5CFCE0157
:1002D0000E940B01F1CFEB8DEC0FFD2FF11DE35AC6
:1002E000FF4FF0829FB7F8940B8FEA89FB898081DA
:1002F0008062CFCFCF93DF93EC01888D8823B9F054
:10030000AA89BB89E889F9898C9185FD03C0808120
:1003100086FD0DC00FB607FCF7CF8C9185FFF2CF9D
:10032000808185FFEDCFCE010E940B01E9CFDF91E7
:10033000CF91089590E0FC01EE58FF4F2491FC010D
:10034000E255FF4F3491FC01E656FF4FE491EE2356
:10035000C9F0222339F0233001F1A8F4213019F13A
:10036000223029F1F0E0EE0FFF1FE057FF4FA5917B
:10037000B4918FB7F894EC91611126C030953E236B
:100380003C938FBF08952730A9F02830C9F024305E
:1003900049F7809180008F7D03C0809180008F7726
:1003A00080938000DFCF84B58F7784BDDBCF84B5A9
:1003B0008F7DFBCF8091B0008F778093B000D2CF3C
:1003C0008091B0008F7DF9CF3E2BDACFCF93DF93B2
:1003D00090E0FC01E255FF4F249186569F4FFC01AF
:1003E00084918823D1F090E0880F991FFC01E8598F
:1003F000FF4FA591B491FC01E057FF4FC591D491F7
:1004000061110EC09FB7F8948C91E22FE0958E2376
:100410008C932881E223E8839FBFDF91CF910895D9
:100420008FB7F894EC91E22BEC938FBFF6CF1F932C
:10043000CF93DF93182FEB0161E00E94E601209734
:1004400039F460E0812FDF91CF911F910C949A01D4
:10045000CF3FD10511F461E0F5CFE12FF0E0EE5888
:10046000FF4FE491E33031F140F4E130B1F0E2309C
:10047000E1F0C038D1057CF7E4CFE73029F1E8306E
:1004800059F1E430B1F78091800080628093800060
:10049000D0938B00C0938A0004C084B5806884BD6B
:1004A000C7BDDF91CF911F91089584B5806284BD4F
:1004B000C8BDF7CF80918000806880938000D09382
:1004C0008900C0938800EDCF8091B0008068809350
:1004D000B000C093B300E5CF8091B00080628093FC
:1004E000B000C093B400DDCF3FB7F8948091CD0148
:1004F0009091CE01A091CF01B091D00126B5A89BDB
:1005000005C02F3F19F00196A11DB11D3FBFBA2FA5
:10051000A92F982F8827BC01CD01620F711D811D65
:10052000911D42E0660F771F881F991F4A95D1F7EA
:10053000089508952091D3013091D40128173907E7
:1005400071F49091D1018091D201981741F0E0911E
:10055000D101F0E0E857FE4F808190E008958FEFE1
:100560009FEF08950895EF92FF920F931F93CF93FB
:10057000DF93DC015C96ED90FC905D97E114F10453
:1005800079F481E090E013969C938E93129790E01B
:1005900080E0DF91CF911F910F91FF90EF90089530
:1005A0005196ED91FC91529750968C915097982FBF
:1005B00090950FB75E962C915E97122F127021FDC9
:1005C0006095F8942081112319F1282B2083E701ED
:1005D0002197F1F728E0462F50E0308160FF1AC0E4
:1005E000382B3083E7012197F1F7BA0175956795AC
:1005F000215089F7112381F08081892380830FBFE7
:100600005C968D919C910197F1F781E090E0C1CFCC
:100610002923DCCF3923E5CF9081892BEFCF20919F
:10062000D3013091D4012817390771F48091D20198
:100630002091D10190E0805C9F4F821B910960E482
:1006400070E00E948909089590E080E0089520916B
:10065000D3013091D40128173907B9F49091D10111
:100660008091D201981789F0E091D101F0E0E8572C
:10067000FE4F80812091D10130E02F5F3F4F2F73DB
:1006800033272093D10190E008958FEF9FEF0895D5
:1006900090E080E008952FB7F8948091C90190917F
:1006A000CA01A091CB01B091CC012FBF8093F10181
:1006B0009093F201A093F301B093F4011092F90129
:1006C00081E08093F9018091D9019091DA01A091A4
:1006D000DB01B091DC010197A109B1098093D90137
:1006E0009093DA01A093DB01B093DC0108952FB75A
:1006F000F8948091C9019091CA01A091CB01B09169
:10070000CC012FBF8093E5019093E601A093E70110
:10071000B093E80181E0809304018091D50190912C
:10072000D601A091D701B091D8010196A11DB11DAC
:100730008093D5019093D601A093D701B093D801AF
:100740000895FC0101900020E9F73197AF01481BA3
:10075000590BBC018AEF91E00C948D008F929F920F
:10076000AF92BF920F931F93CF93DF93CDB7DEB7B6
:10077000A1970FB6F894DEBF0FBECDBF19A24230CD
:1007800008F44AE08E010F5D1F4F842E912CB12C8E
:10079000A12CA50194010E949D09E62FB901CA016F
:1007A000EA30F4F4E05DD801EE938D01232B242B85
:1007B000252B79F790E080E0109719F0CD010E9489
:1007C000A103A1960FB6F894DEBF0FBECDBFDF9197
:1007D000CF911F910F91BF90AF909F908F900895F0
:1007E000E95CE1CFCF93DF934AE00E94AE03EC01D6
:1007F0008FE291E00E94A1038C0F9D1FDF91CF91AA
:100800000895CF92DF92EF92FF92CF93DF936C0126
:10081000990FEE08FF08F7FE1FC06DE28AEF91E026
:100820000E942D01EC0166277727CB016C197D0909
:100830008E099F094AE00E94AE03C80FD91F8FE2BC
:1008400091E00E94A1038C0F9D1FDF91CF91FF903B
:10085000EF90DF90CF9008954AE0C701B6010E9463
:10086000AE03EC01ECCFFC0124813581232B39F45C
:1008700021E0FB018081882349F020E007C08081CE
:1008800091810E94C40B21E0892BB9F7822F089532
:100890001F920F920FB60F9211242F933F934F93F5
:1008A0005F936F937F938F939F93AF93BF93EF93D8
:1008B000FF938AEF91E00E940B01FF91EF91BF91AE
:1008C000AF919F918F917F916F915F914F913F91E8
:1008D0002F910F900FBE0F901F9018951F920F929F
:1008E0000FB60F9211242F938F939F93EF93FF9343
:1008F000E0910A02F0910B028081E0911002F091E8
:10090000110282FD1BC09081809113028F5F8F7353
:1009100020911402821741F0E0911302F0E0E650BA
:10092000FE4F958F80931302FF91EF919F918F91CE
:100930002F910F900FBE0F901F9018958081F4CFCC
:100940001F920F920FB60F9211242F933F938F9304
:100950009F93AF93BF938091C9019091CA01A091D9
:10096000CB01B091CC013091C80123E0230F2D378A
:1009700058F50196A11DB11D2093C8018093C901AE
:100980009093CA01A093CB01B093CC018091CD018B
:100990009091CE01A091CF01B091D0010196A11DFF
:1009A000B11D8093CD019093CE01A093CF01B09360
:1009B000D001BF91AF919F918F913F912F910F9057
:1009C0000FBE0F901F90189526E8230F0296A11DC9
:1009D000B11DD2CF1F920F920FB60F9211242F93F9
:1009E0003F934F935F936F937F938F939F93AF93B7
:1009F000BF93EF93FF93E0910201F09103010995FA
:100A0000FF91EF91BF91AF919F918F917F916F91E6
:100A10005F914F913F912F910F900FBE0F901F90BC
:100A200018951F920F920FB60F9211242F933F9398
:100A30004F935F936F937F938F939F93AF93BF93E6
:100A4000EF93FF93E0910001F09101010995FF916F
:100A5000EF91BF91AF919F918F917F916F915F9136
:100A60004F913F912F910F900FBE0F901F901895AF
:100A70001F920F920FB60F9211242F933F934F9313
:100A80005F936F937F938F939F93AF93BF93EF93F6
:100A9000FF93E091D301F091D401309749F0A685FE
:100AA000B7858585968D91FF14C09C918923A1F40B
:100AB000FF91EF91BF91AF919F918F917F916F9136
:100AC0005F914F913F912F910F900FBE0F901F900C
:100AD00018959C91892361F7A389B4899C91858994
:100AE000809589238C93868997890197F1F7608D8A
:100AF000718DA685B785558538E020E0CB0101973B
:100B0000F1F7822F90E095958795282F4C914523FA
:100B100009F02068315091F7868D81FD20958091F4
:100B2000D20190E001968F7399273091D101381747
:100B300099F0A091D201B0E0A857BE4F2C938093BA
:100B4000D201828D938D0197F1F7A389B4898C919D
:100B50009589892B8C93ACCF868D8160868FF1CF60
:100B60001092FD011092FC0188EE93E0A0E0B0E04D
:100B70008093FE019093FF01A0930002B0930102C5
:100B80002FE031E03093FB012093FA0125EC30E0B7
:100B9000309307022093060224EC30E030930902E0
:100BA0002093080220EC30E030930B0220930A02DD
:100BB00021EC30E030930D0220930C0222EC30E067
:100BC00030930F0220930E0226EC30E03093110296
:100BD0002093100210921302109214021092150228
:100BE0001092160210929A021092990280939B0220
:100BF00090939C02A0939D02B0939E0281E291E0AB
:100C000090939802809397021092AE021092AD02D8
:100C10001092B0021092AF021092B2021092B10282
:100C20001092B4021092B3026091B5026E7F6D7F94
:100C30006093B5026695617081E068278CE00E9440
:100C40009A0161E08CE00E94E601EAEBF0E0E491B9
:100C5000E093A702E6EAF0E0E491F0E0EE0FFF1F78
:100C6000E057FF4F859194919093A9028093A80239
:100C700060E08BE00E94E6018091B50281FD04C036
:100C800061E08BE00E949A018BE08093A302E9EB84
:100C9000F0E0E491E093A402E5EAF0E0E491F0E012
:100CA000EE0FFF1FEA57FF4F859194919093A60294
:100CB0008093A5020895CF93DF93CDB7DEB7289731
:100CC0000FB6F894DEBF0FBECDBF789484B58260B6
:100CD00084BD84B5816084BD85B5826085BD85B5E0
:100CE000816085BD80916E00816080936E0010925E
:100CF00081008091810082608093810080918100D9
:100D00008160809381008091800081608093800069
:100D10008091B10084608093B1008091B0008160C7
:100D20008093B00080917A00846080937A008091F3
:100D30007A00826080937A0080917A00816080934B
:100D40007A0080917A00806880937A001092C100C6
:100D500061E086E00E94E60161E086E00E949A017F
:100D600061E084E00E94E60161E085E00E94E60126
:100D700060E085E00E949A0161E087E00E94E60160
:100D800061E087E00E949A0161E088E00E94E6014C
:100D900061E089E00E94E60160E089E00E949A013A
:100DA000E0910A02F0910B0282E08083E09106025A
:100DB000F09107021082E0910802F09109028FEC95
:100DC000808310921202E0910E02F0910F0286E0F1
:100DD0008083E0910C02F0910D028081806180831C
:100DE000E0910C02F0910D02808188608083E09197
:100DF0000C02F0910D02808180688083E0910C02EA
:100E0000F0910D0280818F7D80831092B20210924A
:100E1000B1021092B0021092AF021092AE02109284
:100E2000AD028DE991E09093B4028093B30290916A
:100E3000A302963108F047C02DEB30E03093AE02AC
:100E40002093AD022BE931E03093B0022093AF0242
:100E50002CE231E03093B2022093B102209168007D
:100E600084E0983048F031E09E3008F430E081E0D2
:100E700001C0880F3A95EAF7822B809368002DE62F
:100E800030E0983050F02BE630E09E3030F02CE629
:100E900030E0963110F030E020E03093AB02209348
:100EA000AA02292F30E0983008F099C181E001C0F2
:100EB000880F9A95EAF78093AC028091B3029091E3
:100EC000B4020197F1F78091B1029091B202892B9F
:100ED00049F1E091D301F091D40122E0E739F20722
:100EE00009F1309739F0A389B4899C91858980955F
:100EF00089238C938091B5028E7F8093B5021092E6
:100F0000D2011092D10187E992E09093D4018093AD
:100F1000D301E091AA02F091AB0280819091AC02E2
:100F2000892B80838BE493E09093010180930001EF
:100F300080916900836080936900E89A87E793E075
:100F40009093030180930201809169008C608093EB
:100F50006900E99A5E0187E0A80EB11C90E0892E35
:100F600090E0992E3324339406E410E00E9474023A
:100F70006B017C0188EE482E83E0582E612C712C89
:100F80000E9474026C197D098E099F09683E7340A6
:100F900081059105A8F3E1E04E1A51086108710836
:100FA000F8EECF0EF3E0DF1EE11CF11C41145104FA
:100FB0006104710429F787E992E00E940F03181673
:100FC00019060CF03DC187E992E00E9427031A82BE
:100FD00019821C821B821E821D828F831886F50156
:100FE00001900020E9F731977F01EA18FB08B7016B
:100FF0006F5F7F4F90E080E00E94FE0A009709F447
:1010000028C19A838983FC82EB82FC011082FE82D4
:10101000ED82B5010E94CD0B62E371E0CE01019635
:101020000E943304882309F4E7C03092F90110923A
:1010300004011093F8010093F7011093F601009357
:10104000F50189819A81009711F00E94750A6091DB
:10105000F5017091F60189E00E9417026091F70195
:101060007091F80185E00E9417026091F90184E017
:101070000E949A016091040188E00E949A01809187
:10108000F1019091F201A091F301B091F40140912E
:10109000ED015091EE016091EF017091F001841B20
:1010A000950BA60BB70B8093E9019093EA01A093EF
:1010B000EB01B093EC018091E5019091E601A091E4
:1010C000E701B091E8014091E1015091E2016091A6
:1010D000E3017091E401841B950BA60BB70B809381
:1010E000DD019093DE01A093DF01B093E0018091D8
:1010F000F1019091F201A091F301B091F40180937C
:10110000ED019093EE01A093EF01B093F001809177
:10111000E5019091E601A091E701B091E80180938B
:10112000E1019093E201A093E301B093E4018AE32B
:1011300091E00E94A1038091F7019091F8010E9433
:10114000010485E491E00E94A1036091D9017091AE
:10115000DA018091DB019091DC010E94F20383E5CA
:1011600091E00E94A1036091E9017091EA018091F0
:10117000EB019091EC010E94F20381E691E00E9464
:10118000A1038091F5019091F6010E9401048CE683
:1011900091E00E94A1036091D5017091D6018091E8
:1011A000D7019091D8010E94F2038AE791E00E9452
:1011B000A1036091DD017091DE018091DF019091CA
:1011C000E0010E94F2038114910409F4CFCE0E9441
:1011D000F700882309F4CACE0E940000C7CE9E30D3
:1011E00040F42850310981E001C0880F2A95EAF7C0
:1011F00062CE2E503109F7CF64E371E0CE01019643
:101200000E943304882329F01092F90130920401DE
:1012100010CF66E371E0CE0101960E94330488236B
:1012200019F01092F90103CF68E371E0CE01019645
:101230000E943304882309F404CF3092F901E6CFE9
:101240001092F8011092F7011092F6011092F50138
:10125000FECE89819A81009711F00E94750A1A8248
:1012600019821E821D821C821B82D6CE81E291E0F1
:1012700090939802809397028091D3019091D4012A
:101280008759924071F4E091AA02F091AB029081EB
:101290008091AC028095892380831092D4011092B2
:1012A000D30108952F923F924F925F926F927F9257
:1012B0008F929F92AF92BF92CF92DF92EF92FF9266
:1012C0000F931F93CF93DF93CDB7DEB7CA1BDB0B12
:1012D0000FB6F894DEBF0FBECDBF09942A883988B7
:1012E00048885F846E847D848C849B84AA84B984BE
:1012F000C884DF80EE80FD800C811B81AA81B981CA
:10130000CE0FD11D0FB6F894DEBF0FBECDBFED01DD
:10131000089597FB072E16F4009407D077FD09D0A7
:101320000E94BF0907FC05D03EF4909581959F4F20
:101330000895709561957F4F0895A1E21A2EAA1B1A
:10134000BB1BFD010DC0AA1FBB1FEE1FFF1FA21775
:10135000B307E407F50720F0A21BB30BE40BF50B72
:10136000661F771F881F991F1A9469F760957095FB
:10137000809590959B01AC01BD01CF010895AA1BFA
:10138000BB1B51E107C0AA1FBB1FA617B70710F070
:10139000A61BB70B881F991F5A95A9F780959095A2
:1013A000BC01CD010895EE0FFF1F0590F491E02DD3
:1013B00009940F931F93CF93DF938230910510F41C
:1013C00082E090E0E091B802F091B90230E020E0D4
:1013D000B0E0A0E0309799F42115310509F44AC036
:1013E000281B390B24303105D8F58A819B81611582
:1013F000710589F1FB0193838283FE0111C0408155
:1014000051810281138148175907E0F048175907A5
:1014100099F4109761F012960C93129713961C93FF
:101420003296CF01DF91CF911F910F9108950093D4
:10143000B8021093B902F4CF2115310551F04217CB
:10144000530738F0A901DB019A01BD01DF01F80162
:10145000C1CFEF01F9CF9093B9028093B802CDCFFD
:10146000FE01E20FF31F81939193225031093983DA
:101470002883D7CF2091B6023091B702232B41F4B5
:1014800020910701309108013093B7022093B602F2
:1014900020910501309106012115310541F42DB748
:1014A0003EB74091090150910A01241B350BE09190
:1014B000B602F091B702E217F307A0F42E1B3F0B20
:1014C0002817390778F0AC014E5F5F4F24173507B6
:1014D00048F04E0F5F1F5093B7024093B6028193BE
:1014E00091939FCFF0E0E0E09CCFCF93DF93009704
:1014F000E9F0FC01329713821282A091B802B091F8
:10150000B902ED0130E020E01097A1F42081318193
:10151000820F931F2091B6023091B7022817390726
:1015200009F061C0F093B702E093B602DF91CF916A
:101530000895EA01CE17DF07E8F54A815B819E0135
:1015400041155105B1F7E901FB83EA8349915991AE
:10155000C40FD51FEC17FD0761F4808191810296BD
:10156000840F951FE90199838883828193819B83EE
:101570008A83F0E0E0E012968D919C91139700979A
:10158000B9F52D913C911197CD010296820F931FD1
:101590002091B6023091B7022817390739F63097F3
:1015A00051F51092B9021092B802B093B702A0930D
:1015B000B602BCCFD383C28340815181840F951F73
:1015C000C817D90761F44E5F5F4F88819981480F32
:1015D000591F518340838A819B8193838283211584
:1015E000310509F0B0CFF093B902E093B8029ECF75
:1015F000FD01DC01C0CF13821282D7CFB0E0A0E0A2
:10160000E4E0FBE00C9454098C01009751F4CB0109
:101610000E94D9098C01C801CDB7DEB7E0E10C9476
:101620007009FC01E60FF71F9C0122503109E217F7
:10163000F30708F49DC0D901CD91DC911197C6172D
:10164000D70798F0C530D10530F3CE01049786173F
:10165000970708F3C61BD70B2297C193D1936D93BD
:101660007C93CF010E94750AD6CF5B01AC1ABD0AEC
:101670004C018C0E9D1EA091B802B091B902512C64
:10168000412CF12CE12C109731F58091B60290910C
:10169000B7028815990509F05CC04616570608F090
:1016A00058C08091050190910601009741F48DB7D3
:1016B0009EB74091090150910A01841B950BE817D0
:1016C000F90708F055C0F093B702E093B602F901AC
:1016D00071836083A0CF8D919C91119712966C902D
:1016E000129713967C901397A815B90559F56C01BC
:1016F00042E0C40ED11CCA14DB0420F1AC014A192B
:101700005B09DA011296159780F062827382518329
:101710004083D9016D937C93E114F10471F0D701FA
:101720001396FC93EE93129776CF22968C0F9D1F03
:10173000F90191838083F301EFCFF093B902E09335
:10174000B80269CF4816590608F42C017D01D3016F
:101750009ACFCB010E94D9097C01009749F0AE01D4
:10176000B8010E94BB0BC8010E94750A870153CFC4
:1017700010E000E050CFFB01DC0102C001900D92AF
:1017800041505040D8F70895FB01DC018D91019044
:1017900080190110D9F3990B0895FB01DC01019028
:1017A0000D920020E1F7089510E0C2E6D0E004C0F9
:1017B000FE010E94D3092196C336D107C9F7F894D8
:0217C000FFCF59
:1017C20099029902010000BA028000000000002D77
:1017D200018D00BA007A01EB00C900DD00000000B3
:1017E20000B3028D004803B2020F0327039A020DD1
:1017F2000A00460042004C00520053706565644185
:101802003A20202000506F736974696F6E413A204C
:10181200202000496E74657276616C413A20202066
:10182200005370656564423A20202000506F73694E
:1018320074696F6E423A20202000496E7465727698
:08184200616C423A20202000F5
:00000001FF
